:020000040000fa
:080000000002040000000000f2
:020000040000fa
:04000800c80200002a
:020000040000fa
:04000c00c802000026
:020000040000fa
:04001000c802000022
:020000040000fa
:04001400c80200001e
:020000040000fa
:04001800c80200001a
:020000040000fa
:04001c00c802000016
:020000040000fa
:04002000c802000012
:020000040000fa
:04002400c80200000e
:020000040000fa
:04002800c80200000a
:020000040000fa
:04002c00c802000006
:020000040000fa
:04003000c802000002
:020000040000fa
:04003400c8020000fe
:020000040000fa
:04003800f60a0000c4
:020000040000fa
:04003c00c8020000f6
:020000040000fa
:04004000c8020000f2
:020000040000fa
:04004400c8020000ee
:020000040000fa
:04004800c8020000ea
:020000040000fa
:04004c00c8020000e6
:020000040000fa
:04005000c8020000e2
:020000040000fa
:040054003410000064
:020000040000fa
:04005800c8020000da
:020000040000fa
:04005c00c8020000d6
:020000040000fa
:04006000c8020000d2
:020000040000fa
:04006400c8020000ce
:020000040000fa
:04006800c8020000ca
:020000040000fa
:04006c00c8020000c6
:020000040000fa
:04007000c8020000c2
:020000040000fa
:04007400c8020000be
:020000040000fa
:04007800c8020000ba
:020000040000fa
:04007c00c8020000b6
:020000040000fa
:04008000c8020000b2
:020000040000fa
:04008400c8020000ae
:020000040000fa
:04008800c8020000aa
:020000040000fa
:04008c00c8020000a6
:020000040000fa
:04009000c8020000a2
:020000040000fa
:04009400c80200009e
:020000040000fa
:04009800c80200009a
:020000040000fa
:04009c00c802000096
:020000040000fa
:0400a000c802000092
:020000040000fa
:0400a400c80200008e
:020000040000fa
:0400a800c80200008a
:020000040000fa
:0400ac00c802000086
:020000040000fa
:0400b000c802000082
:020000040000fa
:0400b400c80200007e
:020000040000fa
:0400b800c80200007a
:020000040000fa
:0400bc00c802000076
:020000040000fa
:0400c000c802000072
:020000040000fa
:0400c400c80200006e
:020000040000fa
:0400c800c80200006a
:020000040000fa
:0400cc00c802000066
:020000040000fa
:0400d000c802000062
:020000040000fa
:0400d400c80200005e
:020000040000fa
:0400d800c80200005a
:020000040000fa
:0400dc00c802000056
:020000040000fa
:0400e000c802000052
:020000040000fa
:0400e400c80200004e
:020000040000fa
:0400e800c80200004a
:020000040000fa
:0400ec00c802000046
:020000040000fa
:0400f000c802000042
:020000040000fa
:0400f400c80200003e
:020000040000fa
:0400f800c80200003a
:020000040000fa
:0400fc00c802000036
:020000040000fa
:04010000c802000031
:020000040000fa
:04010400c80200002d
:020000040000fa
:04010800c802000029
:020000040000fa
:04010c00c802000025
:020000040000fa
:04011000c802000021
:020000040000fa
:04011400c80200001d
:020000040000fa
:04011800c802000019
:020000040000fa
:04011c00c802000015
:020000040000fa
:04012000c802000011
:020000040000fa
:04012400c80200000d
:020000040000fa
:04012800c802000009
:020000040000fa
:04012c00c802000005
:020000040000fa
:04013000c802000001
:020000040000fa
:04013400c8020000fd
:020000040000fa
:04013800c8020000f9
:020000040000fa
:04013c00c8020000f5
:020000040000fa
:04014000c8020000f1
:020000040000fa
:04014400c8020000ed
:020000040000fa
:04014800c8020000e9
:020000040000fa
:04014c00c8020000e5
:020000040000fa
:04015000c8020000e1
:020000040000fa
:04015400c8020000dd
:020000040000fa
:04015800c8020000d9
:020000040000fa
:04015c00c8020000d5
:020000040000fa
:04016000c8020000d1
:020000040000fa
:04016400c8020000cd
:020000040000fa
:04020800c802000028
:020000040000fa
:04020c00c802000024
:020000040000fa
:04021000c802000020
:020000040000fa
:04021400c80200001c
:020000040000fa
:04021800c802000018
:020000040000fa
:04021c00c802000014
:020000040000fa
:04022000c802000010
:020000040000fa
:04022400c80200000c
:020000040000fa
:04022800c802000008
:020000040000fa
:04022c00c802000004
:020000040000fa
:04023000c802000000
:020000040000fa
:04023400c8020000fc
:020000040000fa
:04023800c8020000f8
:020000040000fa
:04023c00c8020000f4
:020000040000fa
:04024000c8020000f0
:020000040000fa
:04024400c8020000ec
:020000040000fa
:04024800c8020000e8
:020000040000fa
:04024c00c8020000e4
:020000040000fa
:04025000c8020000e0
:020000040000fa
:04025400c8020000dc
:020000040000fa
:04025800c8020000d8
:020000040000fa
:04025c00c8020000d4
:020000040000fa
:04026000c8020000d0
:020000040000fa
:04026400c8020000cc
:020000040000fa
:04026800c8020000c8
:020000040000fa
:04026c00c8020000c4
:020000040000fa
:04027000c8020000c0
:020000040000fa
:04027400c8020000bc
:020000040000fa
:04027800c8020000b8
:020000040000fa
:04027c00c8020000b4
:020000040000fa
:04028000c8020000b0
:020000040000fa
:04028400c8020000ac
:020000040000fa
:04028800c8020000a8
:020000040000fa
:04028c00c8020000a4
:020000040000fa
:04029000c8020000a0
:020000040000fa
:04029400c80200009c
:020000040000fa
:04029800c802000098
:020000040000fa
:04029c00c802000094
:020000040000fa
:0402a000c802000090
:020000040000fa
:0402a400c80200008c
:020000040000fa
:0402a800c802000088
:020000040000fa
:0402ac00c802000084
:020000040000fa
:0402b000c802000080
:020000040000fa
:0402b400c80200007c
:020000040000fa
:0402b800c802000078
:020000040000fa
:0402bc00c802000074
:020000040000fa
:0402c000c802000070
:020000040000fa
:0402c400c80200006c
:020000040000fa
:0402c800c802000068
:020000040000fa
:0402cc00c802000064
:020000040000fa
:0402d000c802000060
:020000040000fa
:0402d400c80200005c
:020000040000fa
:0402d800c802000058
:020000040000fa
:0402dc00c802000054
:020000040000fa
:0402e000c802000050
:020000040000fa
:0402e400c80200004c
:020000040000fa
:0402e800c802000048
:020000040000fa
:0402ec00c802000044
:020000040000fa
:0402f000c802000040
:020000040000fa
:0402f400c80200003c
:020000040000fa
:0402f800c802000038
:020000040000fa
:0402fc00c802000034
:020000040000fa
:04030000c80200002f
:020000040000fa
:04030400c80200002b
:020000040000fa
:04030800c802000027
:020000040000fa
:04030c00c802000023
:020000040000fa
:04031000c80200001f
:020000040000fa
:04031400c80200001b
:020000040000fa
:04031800c802000017
:020000040000fa
:04031c00c802000013
:020000040000fa
:04032000c80200000f
:020000040000fa
:04032400c80200000b
:020000040000fa
:04032800c802000007
:020000040000fa
:04032c00c802000003
:020000040000fa
:04033000c8020000ff
:020000040000fa
:04033400c8020000fb
:020000040000fa
:04033800c8020000f7
:020000040000fa
:04033c00c8020000f3
:020000040000fa
:04034000c8020000ef
:020000040000fa
:04034400c8020000eb
:020000040000fa
:04034800c8020000e7
:020000040000fa
:04034c00c8020000e3
:020000040000fa
:04035000c8020000df
:020000040000fa
:04035400c8020000db
:020000040000fa
:04035800c8020000d7
:020000040000fa
:04035c00c8020000d3
:020000040000fa
:04036000c8020000cf
:020000040000fa
:04036400c8020000cb
:020000040000fa
:100400004fc820008e7e24000e01880000000000ee
:10041000000020000000e000020032000001200087
:100420002002880014000700530207000000e000cb
:1004300003003a00805f2100010020000200370025
:100440000000200001002000810f70000100320038
:1004500014000700000020000000e000020032004d
:100460000000020000000000200802000000000060
:100470000040da000000fe004440a9000012200005
:100480000000e0000300320000002000a00188000e
:100490004440a800000006008a1f78008b1f7800e7
:1004a0000000060091018800800478000000eb0045
:1004b0001a003700e284440032a0b4009905ba0063
:1004c000e284440032a0b4009906ba00e2844400f9
:1004d00032a0b4000006eb00476fde00fd07b2005b
:1004e000636ce10003003a00ebff07000000eb0043
:1004f0000a003700606ce10004003a00005deb0088
:100500008b05e900fdff3e00040037006168e10053
:10051000010032000086eb000b00070019c7ba008b
:100520001905ba000e04e00003003a000a00e000da
:10053000e0ff3a0000000600fe07b2009e018800be
:100540008a047800f5ff3700395dba008b05e900b1
:100550000c003200295dba008b05e900080032006a
:100560000c00e00003003a00e284440032a0b40032
:10057000f5ff370019ddba008b05e900faff3a00f4
:100580008904e800e184440032a0b40000000600c1
:100590000040da000000fe000000fa0011118000a7
:1005a000001020000080600000f0a7000000ea00ba
:1005b0000000e9004f00de00004078000080fa00f3
:1005c000000006000000fa009111800000102000d9
:1005d0000080600000f0a7000000ea000000e900d1
:1005e0004f00de00004078000080fa0000000600a6
:1005f0000000fa0021e2a9009560a9009580a900f9
:100600008560a9008580a9000080fa00000006002e
:100610000000fa0031e2a90097c0a90097e0a90004
:1006200087c0a90087e0a9000080fa00000006004a
:100630000200fa00000f78008560a9008580a900fb
:100640001e0078000040780067406000674060004e
:10065000674060000080fb00670060004c00dd0028
:1006600042058000f1ff2800810061000100700058
:1006700040058800000720001e0060004400de00e6
:1006800000407800674060000080fb006700600069
:100690005205800081ff2f00810061000100700081
:1006a000500588009e007800688060004300de00ee
:1006b00000407800614060000080fb006100600045
:1006c0004b00dd00a104800001b0a100010070001a
:1006d000a0048800000820001e0060004700de0023
:1006e00000407800614060000080fb006100600015
:1006f0004c00dd00a104800001c0a10001007000d9
:10070000a00488000080fa00000006000200fa0041
:10071000000f780087c0a90087e0a9001e007800bc
:1007200000407800674060006740600067406000fc
:100730000080fb00670060004800dd00920580003b
:10074000f18f2f008100610001007000900588008a
:10075000000720001e0060004400de00004078001a
:10076000674060000080fb00670060004c00dd0017
:1007700092058000f1ff28008100610001007000f7
:10078000900588009e007800688060004300de00cd
:1007900000407800614060000080fb006100600064
:1007a0004e00dd00b104800001e0a10001007000f6
:1007b000b0048800000820001e0060004700de0032
:1007c00000407800614060000080fb004f00dd00c9
:1007d000b2048000f1ff2700810061000100700079
:1007e000b00488000080fa00000006000000fa0053
:1007f0001011800000407800614060000080fa0025
:10080000000006000000fa0090118000004078000f
:10081000614060000080fa00000006000600fa0057
:10082000000f78001107980022079800ae00900092
:10083000411188009e007800011188009e00900000
:10084000111188000080fa00000006000600fa007e
:10085000000f78001107980022079800ae00900062
:10086000c11188009e007800811188009e009000d0
:10087000911188000080fa00000006000000fa00d4
:100880000011800066006000e60f500002003a0090
:10089000301180000300370031118000f00f20007c
:1008a000008060000080fa00000006000000fa00ee
:1008b0008011800066006000e60f500002003a00e0
:1008c000b011800003003700b1118000f00f20004c
:1008d000008060000080fa00000006000200fa00bc
:1008e000000f78000011800066006000e60f5000e5
:1008f00003003a009e0078002111880003003700b1
:10090000f00f20001e006000201188000080fa0017
:10091000000006000200fa00000f7800801180003d
:1009200066006000e60f500003003a009e00780069
:10093000a111880003003700f00f20001e006000a6
:10094000a01188000080fa00000006000a00fa00ea
:100950002007980031079800420798000000eb003c
:10096000000f7800be0090001107980023003700a8
:100970009e0078004e009000808f500002003100f1
:100980001e0fe800030037002e0090001f00370004
:100990000000000095ff07000004e000f4ff3200b3
:1009a0000000eb00000f780000118000660060007e
:1009b000e60f500007003a00311180003e00900021
:1009c000010878003e0090000080e80030079800a1
:1009d0000700370030118000804078001e00900032
:1009e000014878001e0090000000e8001007980001
:1009f0002e0090000000e900200798002e009000d3
:100a00000000e000e2ff3a002e0090000080fa00b3
:100a1000000006000a00fa0020079800310798003d
:100a2000420798000000eb00000f7800be00900025
:100a300011079800230037009e0078004e009000b8
:100a4000808f5000020031001e0fe80003003700c5
:100a50002e0090001f0037000000000069ff070013
:100a60000004e000f4ff32000000eb00000f78000b
:100a70008011800066006000e60f500007003a0019
:100a8000b11180003e009000010878003e00900007
:100a90000080e8003007980007003700b0118000a0
:100aa000804078001e009000014878001e009000f1
:100ab0000000e800100798002e0090000000e900f8
:100ac000200798002e0090000000e000e2ff3a00ae
:100ad0002e0090000080fa00000006000400fa00da
:100ae000100798009e009000010f78000011800010
:100af00066006000e60f50001e003a000c00370050
:100b00000000000011118000002020000080600023
:100b10000000e000fbff3a001e009000100078008b
:100b2000201188001e0090000080e8001007980047
:100b30001e009000100078000000e000f0ff3a0076
:100b4000110037000000000011118000002020007b
:100b5000008060000000e000fbff3a001e0078000b
:100b6000104078000000fb00201188001e0fe800f4
:100b700001003700000000001e00780010407800df
:100b80000004e000efff3a000080fa0000000600d9
:100b90000400fa00100798009e009000010f7800f2
:100ba0008011800066006000e60f50001e003a00d1
:100bb0000c00370000000000911180000020200090
:100bc000008060000000e000fbff3a001e00900083
:100bd00010007800a01188001e0090000080e8003e
:100be000100798001e009000100078000000e00040
:100bf000f0ff3a0011003700000000009111800062
:100c000000202000008060000000e000fbff3a00b0
:100c10001e007800104078000000fb00a011880042
:100c20001e0fe80001003700000000001e007800e1
:100c3000104078000004e000efff3a000080fa0066
:100c40000000060000f0a7000000ea0000f0a70086
:100c50000080ea0000000600800378000000eb003e
:100c60000038e60000000600889fbe008781cf00a4
:100c7000e28051000139dd000000280080025100af
:100c800005027800c12add000600240006a3b90091
:100c900005a4b90000002f000981b9000603410036
:100ca0008783490005ccb900008020000981b90084
:100cb000060341008783490005ccb90000b02f002e
:100cc0000981b900060341008783490005ccb900ba
:100cd000003820000981b9000603410087834900dc
:100ce00005ccb90000d62f000981b90006034100e8
:100cf0008783490005ccb900002120000981b90093
:100d0000060341008783490005ccb90030e52f0078
:100d10000981b90006034100878349004f33de0093
:100d20004138dd0000037300cfbbde000000280067
:100d300006034000e0834b004109de007000110013
:100d40000233de000038dd000003730082bbde00ea
:100d50000100a3000500390024a8250004b0b90053
:100d60004f00de00c108dd000103700006007800be
:100d70004f04be000000060000000500800178005e
:100d800002003700815978000201e9000200e0000a
:080d9000fcff3a000000060020
:020000040000fa
:100d9800749e2400364380001301c100474380003d
:100da8001201c2001201c200364380005643880077
:100db8000700cc0067438800144380002543800067
:100dc8001301c2001201c400e38620003300cc00e6
:100dd8001301c5001241c1001300cc000000060039
:020000040000fa
:100e000000000000480600008c0c0000c812000022
:100e1000f91800001a1f0000282500001f2b0000f1
:100e2000fc300000ba360000563c0000ce41000005
:100e30001d470000404c000033510000f5550000f4
:100e4000825a0000d75e0000f2620000cf66000008
:100e50006d6a0000ca6d0000e2700000b57300000a
:100e600041760000847800007d7a0000297c000033
:100e70008a7d00009d7e0000627f0000d87f000018
:100e8000ff7f0000d87f0000627f00009d7e000091
:100e90008a7d0000297c00007d7a000084780000b3
:100ea00041760000b5730000e2700000ca6d0000da
:100eb0006d6a0000cf660000f2620000d75e00009d
:100ec000825a0000f555000033510000404c0000ec
:100ed0001d470000ce410000563c0000ba3600001d
:100ee000fc3000001f2b0000282500001a1f000006
:100ef000f9180000c81200008c0c00004806000021
:100f000000000000b8f9000074f3000038ed0000a4
:100f100007e70000e6e00000d8da0000e1d40000b6
:100f200004cf000046c90000aac3000032be000082
:100f3000e3b80000c0b30000cdae00000baa000073
:100f40007ea5000029a100000e9d0000319900003f
:100f500093950000369200001e8f00004b8c00001d
:100f6000bf8900007c87000083850000d7830000d4
:100f700076820000638100009e80000028800000cf
:100f800001800000288000009e8000006381000036
:100f900076820000d7830000838500007c870000f4
:100fa000bf8900004b8c00001e8f000036920000ad
:100fb00093950000319900000e9d000029a10000ca
:100fc0007ea500000baa0000cdae0000c0b300005b
:100fd000e3b8000032be0000aac3000046c900000a
:100fe00004cf0000e1d40000d8da0000e6e0000001
:100ff00007e7000038ed000074f30000b8f90000c6
:1010000052540000444d0000002b00002452000008
:10101000544400004d2300001b860000002b0000fc
:10102000244f00004b2300004c080000002d00005e
:101030002445000001230000d36a000000000000e6
:020000040000fa
:101040000000fa0060022000303a8800213a800057
:10105000f0f32f0000806000203a8800213a8000e1
:1010600000fe2f0000806000203a8800320020003f
:1010700080072000a10920003374200080497800f7
:101080008149780082497800120020006004200025
:101090007105200023742000804978008149780080
:1010a0008249780000000000113a8000000027000b
:1010b0008080600000002300808f5000faff3a001b
:1010c00000000000113a8000000220000080600053
:1010d0000000e000fbff3200a802070000ba200079
:1010e0004b0507009102070075070700350207004e
:1010f0001d0607001c28ef001ce8a9001c08a8001a
:101100009480a900880107000004e0000300320079
:101110001c28a9000080fa00000006006000b8004a
:10112000905e8800a15e88006000b800305f880093
:10113000415f88006000b800d05f8800e15f8800f0
:101140008480a9009480a800e040800062006000d4
:101150000000e0000f003a0001003700a502070080
:101160005116800000042000008060000000e000b4
:10117000faff3a0000000000511680000004200031
:10118000008060000000e000fbff32006601070005
:101190001c28a8001cc8a800070037000000000099
:1011a00005003700000000000300370000000000c9
:1011b00001003700000000008e020700114180008e
:1011c000f07c2000808f5000f4ff3600e04080006b
:1011d000620060000000e00001003a0040003700bb
:1011e0005116800000042000008060000000e00034
:1011f00013003a001d020700511680000004200071
:10120000008060000000e00006003a00e04080003e
:10121000700060000000e00009003a001c88a8008f
:1012200007003700e0408000700060000000e00030
:10123000030032001c88a9001c28a90028003700e0
:101240005116800000082000008060000000e000cf
:10125000d4ff3a0005020700511680000008200064
:10126000008060000000e00007003a00e1408000dc
:1012700000022000008060000000e000cbff3a0088
:101280001ca8a800ccff3700e1408000000220002d
:10129000008060000000e000c6ff32001ca8a9002a
:1012a000e1408000000820000080600000f0a700fe
:1012b0000000ea000000e9004f00de000040780076
:1012c0000080fb00610060004700dd00e14080001d
:1012d0000170a10001007000e0408800b6ff3700f7
:1012e00085ff37000000fa00e0812000e9060700d2
:1012f000e0408000610060000000e0005300320028
:10130000e140800000042000008060000000e00058
:101310002a0032001cc8a9000000eb00f04288003f
:101320000000eb00e04288000000eb00d0428800a3
:101330001a28ef001628ef001828ef000000eb0035
:10134000005d88000000eb00105d88000000eb00ed
:10135000205d88000000eb00305d88000000eb009d
:10136000505d88000000eb00705d88000000eb001d
:10137000805d88000000eb00905d88000000eb00bd
:10138000a05d88000000eb00b05d88000000eb006d
:10139000c05d88000000eb00d05d88000000eb001d
:1013a000005e88000000eb00105e88000000eb008b
:1013b000605e88000000eb00705e8800c0e82000de
:1013c000f0428800404180000000e00002003a0046
:1013d000705e80005060880070438000105f88005d
:1013e000e0428000005f880020bd2000600607000a
:1013f000205f800090438800215f8000205f800094
:1014000018050700504188005041800041382700ee
:101410000080500010fe0700805f8800805f800021
:101420000000ea00905f880080438000b05f880081
:10143000f0428000a05f880060be20004c060700dc
:10144000c05f8000a043880066003700e140800054
:1014500000082000008060000000e000050032006d
:1014600001418000a0aa240000804000d0428800f2
:101470000800370001418000a0aa240080804000bd
:101480002000200000017800110009008200d8002f
:10149000d0428800e140800000042000008060000d
:1014a0000000e0000a0032001cc8a900f0428000e1
:1014b000cf80de00c000dd0000002000d05f88008b
:1014c000e15f88001a28ef001628ef001828ef00c7
:1014d000404180000000e00008003a00705e80009b
:1014e00050608800d042800040608800a0bf20008b
:1014f0001f06070060608000f0428800e040800026
:10150000640060000000e00002003200d042800071
:10151000f0428800d0428000cafd0700e0040700c6
:10152000e042880070438000105f8800e042800045
:10153000005f880020bd20000d060700e04080000d
:10154000680060000000e00004003200205f8000be
:10155000560107009043880002003700205f80009a
:10156000904388009143800090438000bd040700b1
:1015700050418800504180004138270000805000d1
:10158000b5fd0700805f8800805f80000000ea00f2
:10159000905f880080438000b05f8800f042800048
:1015a000a05f880060be2000f1050700e0408000d9
:1015b000680060000000e00004003200c05f8000ae
:1015c0003a010700a043880002003700c05f800096
:1015d000a0438800805e80000000e00001003d0024
:1015e0001c28a9000080fa00000006003600f80060
:1015f000809fbe00829fbe00849fbe00869fbe006b
:101600000000fa008480a900104180000000e8007a
:1016100010418800e0408000620060000000e000af
:1016200008003200ef0507009e000700dafd070002
:101630002cff0700a10507000a060700fb050700ad
:10164000ee04070080408000610060000000e000c0
:101650002e003200a04080006142800081006800be
:1016600001f0a7008100ea008100e900cf08de0058
:10167000814078000000e800a04088000104e000fc
:10168000220032001428ef001042800091438000b5
:10169000010878000080e8001042880020428000a5
:1016a000815e8000010878000080e8002042880008
:1016b00030428000a1438000010878000080e800eb
:1016c000304288004042800061418000010878007b
:1016d0000080e80040428800414280005042800083
:1016e000808f5000090036000088200010428800da
:1016f000809420002042880000a120003042880011
:1017000080ad2000404288001008a9000080fa0047
:101710004f03be004f02be004f01be004f00be008f
:101720003600f900004006000000fa0044e0a9007d
:101730009088280081082000b0428800c1428800bb
:1017400080382100a0428800a0aa2200f040880032
:1017500080802000010024000108780080802000a3
:101760000100240021009800807f2400a000900048
:10177000807f240010009000a9050700807f2400ce
:10178000300090008080d1000000240000804000e4
:101790007041880000802000f17c20000108780062
:1017a000d621ef00d821ef00da21ef00703e2000b3
:1017b000200e880070072000400e88008006200060
:1017c000600e8800ce21ef00d021ef008b20a90011
:1017d0009b20a90020002800000e8800200e800019
:1017e0000005b100300e8800c7e1a8002023ef00fb
:1017f00081e3a90001198000003020000100700081
:101800000019880001198000f0f12f00808060002d
:101810000006200001007000001988002063a80065
:101820002043a8002223ef0011198000f0cf2f00e1
:10183000008060000090a000101988002423ef00b1
:10184000f0c0b30024e3b7002823ef004119800063
:1018500000fe2f00008060000030a00040198800ca
:101860002603a9000080eb00601988002c03a90062
:101870002c23a9002c43a9002c63a9003023ef00de
:101880001119800030fc2f000080600010198800c2
:1018900081e3a80021e3a8000040eb000080fa00eb
:1018a000000006000000fa0050438000c05d880080
:1018b00060438000005e8800b0438000005d8800c7
:1018c000c0438000705d880000ba2000520207000b
:1018d000e0408000610060000000e0002500320070
:1018e000a1428000d0408000808f5000040036006c
:1018f000d04080000000e800d0408800150037008c
:10190000b0428000c14280000001be00b0408000b3
:10191000c1408000800f5100818f590007003600c0
:10192000b0408000c1408000f00db0000180b000e8
:10193000b0408800c1408800060037001cc8a800dd
:101940001c08a90001438000605e800000805000f8
:101950008041880002438000b0408000c140800088
:101960004008de00000078000000410000438800cd
:1019700012003700615e80008041800000804000de
:101980000043880080418000aefc0700e90f500052
:101990000a003400804180000000e00004003d00a7
:1019a00080418000690040008041880003003700ca
:1019b0008041800069005000804188000080fa006a
:1019c000000006000000fa0080142000b05e8800cd
:1019d000400a2000c05e8800f0ff2700d05e88002b
:1019e00090992700e05e8800e05e80000000ea0039
:1019f000f05e880020bd2000db040700801420007a
:101a0000505f8800400a2000605f8800f0ff2700d8
:101a1000705f880090992700805f8800805f800059
:101a20000000ea00905f880060be2000ce0407003e
:101a3000d0cc2000f05f8800400a200000608800c1
:101a4000f0ff270010608800f0ff2400206088006d
:101a5000206080000000ea0030608800a0bf200005
:101a6000c10407000080fa00000006000400fa002c
:101a70006000b800008fbe00040037001200200094
:101a8000030020001e0f41005e974900f069280006
:101a9000110020001e01be00800f5100818f5900ef
:101aa000f6ff34000080fa00000006000400fa008f
:101ab000100798007141800060418000808f5000c5
:101ac0000a00340061418000724180006041800062
:101ad000000051006c0307009e00900061030700a6
:101ae0009e009000010f40000d0037006141800012
:101af00070418000808f50000700340061418000f9
:101b000070418000600307009e00900055030700ad
:101b1000000f7800020037009e009000010f78004f
:101b20001e0078000080fa00000006000000fa00a5
:101b3000011c8000f0fc2f0000806000001c880069
:101b4000011c8000c0ff2f0000806000001c880086
:101b500000302000401c880030002000501c88000d
:101b6000d0002000101c8800807f2000201c8800ee
:101b700081e3a8000080fa00000006000000fa00df
:101b80009bfa0700a0f22f00a9fa070000402c00e2
:101b9000f0418800d0752900004288000142800091
:101ba000f0418000020420001cfb07003c08a90053
:101bb0003c08a9007042800090428800704280007a
:101bc0009041880070428000a04188000000eb0036
:101bd0000080fa00000006000200fa000000eb009e
:101be000000f780082fa07001e0078000080fa00db
:101bf000000006002000fa00e04180006100600063
:101c00000000e00002003a000080eb001401370001
:101c1000a04180008000780090418000008050004a
:101c20008000e800904180000081eb004301070044
:101c3000b0418800b04180004800de00c04188000b
:101c4000b1418000f00f200000806000d04188008a
:101c5000a04180000080e800104078000080fb0078
:101c600050079800a04180000000e8001040780074
:101c70000080fb0060079800904180000080e80031
:101c800090418800c0418000de009000808f5000ad
:101c9000e7003a00d0418000ee009000808f5000b5
:101ca000e3003a00704280000000e8001040780035
:101cb0000080fb00d1042000810f50007100320031
:101cc000d1042000810f500004003c00c10420001a
:101cd000810f50009e003200ce003700d106200058
:101ce000810f50000400320031072000810f5000a6
:101cf00090003200c70037009041800070079800c4
:101d00009041800064004000904188007e00900077
:101d10001000be000000780010079800904180007d
:101d20009000780031079800904180000080e80022
:101d3000904188000080eb00b0418800b0c2b30041
:101d40000057980040c2b300105798000040eb00c5
:101d500020579800b14180007000470001017800d1
:101d600021002000f5000700b0418800b04180004c
:101d700000017800be0090001e009000ef000700f8
:101d8000b04188007000470054fb070000000000cd
:101d900001fa07000004e000fdff3a000b003700e5
:101da0001e009000104078000080fb009e00900014
:101db0008100e80011079800c8fa07000000000041
:101dc000f5f907000004e000fdff3a003e00900036
:101dd00000f0a7000000ea000000ea004f00de006b
:101de00000407800be0090008100e90031079800b3
:101df0000004e000eaff3a0030c2b3000057980048
:101e0000b1418000700047000101780011002000fe
:101e1000ca000700b0418800b0418000004078004f
:101e200010579800b04180004800de000040780064
:101e3000205798000000eb00400798000d00370085
:101e4000f00047004e0090000080400010407800f5
:101e50000080fb00a1fa070000000000cef9070097
:101e60000004e000fdff3a004e0090000000e80092
:101e7000400798004e009000e20f5000f0ff36003f
:101e80006b003700904180007007980090418000ff
:101e900064004000904188007e0090001000be0069
:101ea00000007800200798009041800090007800a2
:101eb00031079800904180000080e8009041880040
:101ec00091418000010f7800080037001e00780063
:101ed000904078002e009000014878002e0090007d
:101ee0000000e800200798001e0fe8003e00900068
:101ef00000f0a7000000ea000000ea004f00de004a
:101f000000407800be0090008100e9003107980091
:101f10000004e000edff3a00f0802800effa07002f
:101f2000000000009cf907000004e000fdff3a00fb
:101f30003f00370050802800e8fa0700000000004a
:101f400095f907000004e000fdff3a003800370073
:101f50000080eb00b0418800b0c2b3000057980089
:101f600040c2b3001057980000c2b3002057980039
:101f70000040eb00305798000040eb0040579800bd
:101f800000c1b3005057980030c2b30060579800aa
:101f9000b14180007000470001017800710020000d
:101fa00066000700b0418800b04180000040780022
:101fb00070579800b04180004800de000040780073
:101fc000005f98000000eb00400798000d0037000c
:101fd000f00047004e009000008040001040780064
:101fe0000080fb003dfa0700000000006af90700ce
:101ff0000004e000fdff3a004e0090000000e80001
:10200000400798004e009000e80f5000f0ff3600a7
:102010000700370070812800b0fa070000000000b8
:102020005df907000004e000fdff3a000000000039
:10203000020220008000eb00c0c320004ffb07001d
:102040003c08a900704280009042880070428000e5
:102050009041880070428000a04188000000eb00a1
:102060000080fa00000006003600f800809fbe00e5
:10207000829fbe00849fbe00869fbe00881f78009e
:102080000000fa008560a900060037009842800031
:10209000faf9070000407800004c78000800e800da
:1020a00090428800d1f907000004e000f7ff3a00f1
:1020b0009042800063005000a04188008042800070
:1020c0008000e90090428000808f500005003100c0
:1020d0007042800090428800804280000000e90049
:1020e000a0418800904180009040780040c2b30039
:1020f00080cf500007003a00a04180009040780057
:1021000030c2b30080cf500004003a003c08a80061
:102110000200370070428000904288000080fa0080
:102120004f0478004f03be004f02be004f01be00b7
:102130004f00be003600f900004006001000fa0013
:1021400050079800610798007207980010002a0055
:102150003007980080002000400798000000eb0046
:1021600010079800250037005e00900010407800ae
:102170000080fb00200798005e0090000000e8004f
:10218000500798000000eb00000f780014003700a3
:10219000fe0090002e00900000806800610060004a
:1021a000004078000004e000060032007e0090004d
:1021b0008000d1003e009000008068007007980009
:1021c000030037007e0090000000d10070079800e7
:1021d0002e0090000000d100200798001e0fe8009c
:1021e0004e0090009e007800808f5000e8ff39007c
:1021f0001e0090000000e800100798009e0090006c
:102200006e009000808f5000d7ff39007e00900054
:102210000080fa00000006000200fa00000f7800bb
:102220004400f80044e0a80044c0a8004480a8008e
:102230000a0107002c0107001e00780050089000da
:1022400080fa07009e007800f1089000810f50008e
:1022500002003d00330107000e0037001e00780029
:10226000500890000000e000050034001e007800d7
:10227000e00890001e00780031009800050037004b
:102280001e007800600890008000ea001e007800c0
:10229000310098001e0078001010900069fa0700c5
:1022a0009e007800f1089000810f500002003d0070
:1022b000250107000e0037001e0078001010900066
:1022c0000000e000050034001e007800e0089000e7
:1022d0001e00780021089800050037001e007800d5
:1022e000600890008000ea001e0078002108980035
:1022f0001e0107001e007800900890001e00780064
:10230000200090000000ea00020207009e00780012
:10231000e01098001e007800e0109000204180003e
:1023200080805000304180000080400030418800b3
:102330001e0078006010900020418800404180001d
:102340000000e8004041880040418000f40f500048
:1023500005003a00314180001e007800711098009d
:102360002828ef002628ef00310107001e00780022
:1023700000189000b14121003a0107009e0078004a
:10238000b01098001e007800b01090001e00780079
:10239000211098001e007800a0109000c01a2000a4
:1023a000808f500006003c001e007800d11a2000eb
:1023b000211098001e007800d11a200031109800da
:1023c0001e00780080189000a0aa2000808f500086
:1023d00014003c001e00780000189000f1752700e2
:1023e000200107009e007800d01098001e007800a1
:1023f000501190001e007800001890006500b90090
:1024000000007800800041001e0078005110980004
:102410001e007800d01090001e0078005110980027
:10242000710037001e00780080189000f0ff210036
:10243000808f500011003c001e00780000189000b2
:102440008000eb00070107009e007800d010980084
:102450001e007800d01090001e00780051109800e7
:102460001e007800d010900080f42300808040008f
:102470001e007800511098005b0037001e007800a5
:102480008018900040552300808f500011003c00c0
:102490001e007800001890008000eb00f10007009b
:1024a0009e007800d01098001e007800d010900098
:1024b0001e007800511098001e007800d010900087
:1024c00080f42300808040001e00780051109800a6
:1024d000450037001e0078008018900090aa240064
:1024e000808f500011003c001e0078000018900002
:1024f0008000eb00db0007009e007800d010980001
:102500001e007800d01090001e0078005110980036
:102510001e007800d010900080f4230080804000de
:102520001e007800511098002f0037001e00780020
:1025300080189000e0ff2500808f500011003c00c3
:102540001e007800001890008000eb00c500070016
:102550009e007800d01098001e007800d0109000e7
:102560001e007800511098001e007800d0109000d6
:1025700080f42300808040001e00780051109800f5
:10258000190037001e007800801890003055270091
:10259000808f500011003c001e0078000018900051
:1025a0008000eb00af0007009e007800d01098007c
:1025b0001e007800d01090001e0078005110980086
:1025c0001e007800d010900080f42300808040002e
:1025d0001e00780051109800030037001e0078009c
:1025e00081f42300511098001e007800e010900044
:1025f0001e00780050109000808040001e0078007f
:10260000611098004400f9000080fa000000060004
:102610000200fa00000f78001e0078009171270078
:10262000610098001e00780051352000410098009c
:102630001e007800c1cc2400610898001e007800bc
:10264000d1cc2000710898001e007800d11a20001b
:10265000411098000080fa0000000600445d8000f0
:10266000055d80001301c000155d80001381c0006e
:102670000090cb000000cb00355d80001381c000ce
:102680000090cb000000cb00645d8000555d8000b1
:102690001381c0000000cb000000cd00505d880019
:1026a000445d8000755d80001301c000855d800081
:1026b0001381c0000090cb000000cb00a55d80001e
:1026c0001381c0000090cb000000cb00645d80004f
:1026d000b55d80001381c0000000cb000000cd007c
:1026e000b05d880000000600505d8000c15d800084
:1026f0000000ca000180ca000030cb000000cd00fd
:10270000d05d8800b05d8000015e80000000ca00de
:102710000180ca000030cb000000cd00105e8800b0
:1027200000000600e45d8000d55d8000f95d80005a
:102730001301c0000000cd00110009000900d900fc
:10274000305d880000000600e45d8000155e8000ba
:10275000f95d80001301c0000000cd0011000900e8
:102760000900d900a05d880000000600105d80000f
:102770000000ca00345d8000255e80001381c00027
:102780000000cb00145d80001381c0000090cb00de
:102790000000cb000000cd00105d8800805d80004f
:1027a0000000ca00a45d8000255e80001381c00087
:1027b0000000cb00845d80001381c0000090cb003e
:1027c0000000cb000000cd00805d8800205d80000f
:1027d0000000ca00145d8000355e80001381c000d7
:1027e0000000cb00245d80001381c0000090cb006e
:1027f0000000cb000000cd00205d8800905d8000cf
:102800000000ca00845d8000355e80001381c00036
:102810000000cb00945d80001381c0000090cb00cd
:102820000000cb000000cd00905d88000000060095
:10283000805e8000745e8000455e80000000ca00fb
:102840001381c0000000cb00845e80001381c000b3
:102850000090cb000000cb000000cd00805e88001f
:1028600000000600841f7800851f780000027800b1
:10287000810278001301c0000000cd00cf02780073
:102880004f02780000000600821f780001017800e6
:10289000110009000200d9004f0178000000060075
:1028a0000200fa00881f7800000f78009060800016
:1028b0009e0f500003003500e060800080608800bb
:1028c00025003700906080001e001000f1ff2700f7
:1028d000edff0700c0608800c06080004b80de0014
:1028e000b0608800c1608000f07f20000080600040
:1028f0004400dd00d0608800b060800067004000c8
:1029000080004000e0c020000080400010047800fb
:10291000d1608000b060800067004000000140008e
:10292000e0c020000000410010017800b06080008d
:102930000000e8006700400080014000e0c0200087
:10294000008041001000780000005100c5ff070022
:102950000000540080608800806080004f04780090
:102960000080fa00000006000000fa00f0ff2300db
:10297000906088000000eb00e0608800a0ba2f00a3
:10298000f0608800e0772f000061880080322f001f
:1029900010618800a00b2f002061880060dc2e00f1
:1029a00030618800c0b22e0040618800607b2e003c
:1029b0005061880040542e006061880080462e00df
:1029c0007061880070222e0080618800a01f2e0098
:1029d0009061880040172e00a061880040172e00eb
:1029e000b061880040172e00c061880040172e009b
:1029f000d06188000080fa000000060014408000ca
:102a000025408000364080000400e00019003500b9
:102a10000500e0000700350085017800040178001a
:102a20002d000700b40e8800c50e8800d60e880061
:102a3000000006000600e000070035008401780071
:102a40000601780024000700b60e8800c40e880036
:102a5000d50e8800000006008501ea000601ea00a4
:102a60001d000700b50e8800c40e8800d60e880031
:102a7000000006000500e000100035000600e00040
:102a80000700350086017800050178001200070074
:102a9000b50e8800c60e8800d40e8800000006001f
:102aa0008601ea000401ea000b000700b40e88006a
:102ab000c60e8800d50e8800000006008401ea00da
:102ac0000501ea0004000700b60e8800c50e880064
:102ad000d40e8800000006000008d4000282b8006e
:102ae000050178000382b800850178000088bf00e6
:102af00082005000838050008180d1000103780063
:102b000082804000810278008380400001027800ca
:102b1000000006000200fa00881f7800891f780074
:102b20004400f800080028000800e10002003a0014
:102b300000002c00290037000808e10002003a00dc
:102b4000f0ff2700250037008e0478008003eb009b
:102b50000100e0000a003b00810c78000000e0006a
:102b600004003400800078001900ea0007002c00ff
:102b7000030037008000ea0019007800f7ff230007
:102b80008080ca008100ca00c8c52000f5ff270068
:102b9000090008000f0000001900cd000680cd00dc
:102ba0000600e000060033001201c400190378009b
:102bb00012c1c4003802780087031a0005003700ec
:102bc0001241c400190378001281c4003802780051
:102bd000870342008502d1000700ea004400f900a3
:102be000cf0478004f0478000080fa00000006004f
:020000040000fa
:102bf00054080000ba0300000000000000080000b4
:102c00003200000000000000420800000c0000003c
:102c1000020000008008480009100a00d80a9e003f
:102c20000b0a0000f8470000080000000000000048
:102c30007c0c000008000000020000002d2445006c
:102c400000230000000000003c0c000020000000f9
:102c5000000000004e080000060000000200000016
:102c60003c0c5b000c3c0c00320800001000000023
:102c7000000000005c0c00002000000002000000ca
:102c80000020e40012fb090011058b000246010040
:102c9000a30051000029000014000a0000050000f4
:102ca0000300010000010000000000000e0c000005
:0c2cb0002e0000000000000000000000ea
:020000040000fa
:102cbc0020028000a1018000809fbe004440a8003b
:102ccc0000002000a00188000786200000082000da
:102cdc00b70078000101b80083814100057028001d
:102cec000200e00009003a0005824100941b7800c4
:102cfc000344b00005824100940b78004f00be00e5
:102d0c0020028800a1018800000006000582410015
:102d1c001403780083c1e8000582410014001300fd
:102d2c000090b800869b4000e343b0000582410050
:102d3c00058241001403780083c1e800058241003c
:102d4c00140013000090b800868b40004f00be00aa
:102d5c0020028800a10188000000060011089800dc
:102d6c0000000600f0039000800a900005825300da
:102d7c005080ca00c002780045018800a002900073
:102d8c001301c0007c00c8000000cb000600cc0082
:102d9c00d00090000130e10004003c00e000900005
:102dac000130e10001003400860078001108980021
:102dbc00b00290001301c00001035300c002900048
:102dcc001241c4000000cb005000cc001501800063
:082ddc0005207800000006004c
:020000040000fa
:102de400d03f82000a08b500800278004440800089
:102df4001301c0000400cc0034438800e03f82008b
:102e04000e08b50080027800644080001301c00001
:102e14000400cc00444388000000060050408800b1
:102e24007140880000000600b4438000c543800060
:102e34001540880096ed26008502ea008500ca0048
:102e44001201c1000000cc00204088008500ca00a7
:102e54001241c1000000cc00304088000000060090
:102e640096438000a74380001443800025438000dc
:102e74001301c4001241c200638720003300cc0058
:102e84001301c1001201c5001300cc0000000600ac
:102e940000029000c53f82001301c0000400cc0072
:102ea40014009800f43f82008482d10004002400be
:102eb4000482420064418800000006000000fa0019
:102ec400c422ef000080eb0000168800cc22ef0043
:102ed4000080eb00401688000080fa000000060025
:020000040000fa
:0200000401f009
:04000000ffff0000fe
:020000040000fa
:0200000401f009
:04000400ffff0000fa
:020000040000fa
:0200000401f009
:04000800ffff0000f6
:020000040000fa
:0200000401f009
:04000c0000000000f0
:020000040000fa
:0200000401f009
:04001000610000008b
:020000040000fa
:0200000401f009
:040014005f00000089
:020000040000fa
:0200000401f009
:04001800f7000000ed
:020000040000fa
:0200000401f009
:04001c00dfff000002
:00000001FF
