:020000040000fa
:080000000002040000000000f2
:020000040000fa
:04000800c80200002a
:020000040000fa
:04000c00c802000026
:020000040000fa
:04001000c802000022
:020000040000fa
:04001400c80200001e
:020000040000fa
:04001800c80200001a
:020000040000fa
:04001c00c802000016
:020000040000fa
:04002000c802000012
:020000040000fa
:04002400c80200000e
:020000040000fa
:04002800c80200000a
:020000040000fa
:04002c00c802000006
:020000040000fa
:04003000c802000002
:020000040000fa
:04003400c8020000fe
:020000040000fa
:04003800d00a0000ea
:020000040000fa
:04003c00c8020000f6
:020000040000fa
:04004000c8020000f2
:020000040000fa
:04004400c8020000ee
:020000040000fa
:04004800c8020000ea
:020000040000fa
:04004c00c8020000e6
:020000040000fa
:04005000c8020000e2
:020000040000fa
:04005400c8020000de
:020000040000fa
:04005800c8020000da
:020000040000fa
:04005c00c8020000d6
:020000040000fa
:04006000c8020000d2
:020000040000fa
:04006400c8020000ce
:020000040000fa
:04006800c8020000ca
:020000040000fa
:04006c00c8020000c6
:020000040000fa
:04007000c8020000c2
:020000040000fa
:04007400c8020000be
:020000040000fa
:04007800c8020000ba
:020000040000fa
:04007c00c8020000b6
:020000040000fa
:04008000c8020000b2
:020000040000fa
:04008400c8020000ae
:020000040000fa
:04008800c8020000aa
:020000040000fa
:04008c00c8020000a6
:020000040000fa
:04009000c8020000a2
:020000040000fa
:04009400c80200009e
:020000040000fa
:04009800c80200009a
:020000040000fa
:04009c00c802000096
:020000040000fa
:0400a000c802000092
:020000040000fa
:0400a400c80200008e
:020000040000fa
:0400a800c80200008a
:020000040000fa
:0400ac00c802000086
:020000040000fa
:0400b000c802000082
:020000040000fa
:0400b400c80200007e
:020000040000fa
:0400b800c80200007a
:020000040000fa
:0400bc00c802000076
:020000040000fa
:0400c000c802000072
:020000040000fa
:0400c400c80200006e
:020000040000fa
:0400c800c80200006a
:020000040000fa
:0400cc00c802000066
:020000040000fa
:0400d000c802000062
:020000040000fa
:0400d400c80200005e
:020000040000fa
:0400d800c80200005a
:020000040000fa
:0400dc00c802000056
:020000040000fa
:0400e000c802000052
:020000040000fa
:0400e400c80200004e
:020000040000fa
:0400e800c80200004a
:020000040000fa
:0400ec00c802000046
:020000040000fa
:0400f000c802000042
:020000040000fa
:0400f400c80200003e
:020000040000fa
:0400f800c80200003a
:020000040000fa
:0400fc00c802000036
:020000040000fa
:04010000c802000031
:020000040000fa
:04010400c80200002d
:020000040000fa
:04010800c802000029
:020000040000fa
:04010c00c802000025
:020000040000fa
:04011000c802000021
:020000040000fa
:04011400c80200001d
:020000040000fa
:04011800c802000019
:020000040000fa
:04011c00c802000015
:020000040000fa
:04012000c802000011
:020000040000fa
:04012400c80200000d
:020000040000fa
:04012800c802000009
:020000040000fa
:04012c00c802000005
:020000040000fa
:04013000c802000001
:020000040000fa
:04013400c8020000fd
:020000040000fa
:04013800c8020000f9
:020000040000fa
:04013c00c8020000f5
:020000040000fa
:04014000c8020000f1
:020000040000fa
:04014400c8020000ed
:020000040000fa
:04014800c8020000e9
:020000040000fa
:04014c00c8020000e5
:020000040000fa
:04015000c8020000e1
:020000040000fa
:04015400c8020000dd
:020000040000fa
:04015800c8020000d9
:020000040000fa
:04015c00c8020000d5
:020000040000fa
:04016000c8020000d1
:020000040000fa
:04016400c8020000cd
:020000040000fa
:04020800c802000028
:020000040000fa
:04020c00c802000024
:020000040000fa
:04021000c802000020
:020000040000fa
:04021400c80200001c
:020000040000fa
:04021800c802000018
:020000040000fa
:04021c00c802000014
:020000040000fa
:04022000c802000010
:020000040000fa
:04022400c80200000c
:020000040000fa
:04022800c802000008
:020000040000fa
:04022c00c802000004
:020000040000fa
:04023000c802000000
:020000040000fa
:04023400c8020000fc
:020000040000fa
:04023800c8020000f8
:020000040000fa
:04023c00c8020000f4
:020000040000fa
:04024000c8020000f0
:020000040000fa
:04024400c8020000ec
:020000040000fa
:04024800c8020000e8
:020000040000fa
:04024c00c8020000e4
:020000040000fa
:04025000c8020000e0
:020000040000fa
:04025400c8020000dc
:020000040000fa
:04025800c8020000d8
:020000040000fa
:04025c00c8020000d4
:020000040000fa
:04026000c8020000d0
:020000040000fa
:04026400c8020000cc
:020000040000fa
:04026800c8020000c8
:020000040000fa
:04026c00c8020000c4
:020000040000fa
:04027000c8020000c0
:020000040000fa
:04027400c8020000bc
:020000040000fa
:04027800c8020000b8
:020000040000fa
:04027c00c8020000b4
:020000040000fa
:04028000c8020000b0
:020000040000fa
:04028400c8020000ac
:020000040000fa
:04028800c8020000a8
:020000040000fa
:04028c00c8020000a4
:020000040000fa
:04029000c8020000a0
:020000040000fa
:04029400c80200009c
:020000040000fa
:04029800c802000098
:020000040000fa
:04029c00c802000094
:020000040000fa
:0402a000c802000090
:020000040000fa
:0402a400c80200008c
:020000040000fa
:0402a800c802000088
:020000040000fa
:0402ac00c802000084
:020000040000fa
:0402b000c802000080
:020000040000fa
:0402b400c80200007c
:020000040000fa
:0402b800c802000078
:020000040000fa
:0402bc00c802000074
:020000040000fa
:0402c000c802000070
:020000040000fa
:0402c400c80200006c
:020000040000fa
:0402c800c802000068
:020000040000fa
:0402cc00c802000064
:020000040000fa
:0402d000c802000060
:020000040000fa
:0402d400c80200005c
:020000040000fa
:0402d800c802000058
:020000040000fa
:0402dc00c802000054
:020000040000fa
:0402e000c802000050
:020000040000fa
:0402e400c80200004c
:020000040000fa
:0402e800c802000048
:020000040000fa
:0402ec00c802000044
:020000040000fa
:0402f000c802000040
:020000040000fa
:0402f400c80200003c
:020000040000fa
:0402f800c802000038
:020000040000fa
:0402fc00c802000034
:020000040000fa
:04030000c80200002f
:020000040000fa
:04030400c80200002b
:020000040000fa
:04030800c802000027
:020000040000fa
:04030c00c802000023
:020000040000fa
:04031000c80200001f
:020000040000fa
:04031400c80200001b
:020000040000fa
:04031800c802000017
:020000040000fa
:04031c00c802000013
:020000040000fa
:04032000c80200000f
:020000040000fa
:04032400c80200000b
:020000040000fa
:04032800c802000007
:020000040000fa
:04032c00c802000003
:020000040000fa
:04033000c8020000ff
:020000040000fa
:04033400c8020000fb
:020000040000fa
:04033800c8020000f7
:020000040000fa
:04033c00c8020000f3
:020000040000fa
:04034000c8020000ef
:020000040000fa
:04034400c8020000eb
:020000040000fa
:04034800c8020000e7
:020000040000fa
:04034c00c8020000e3
:020000040000fa
:04035000c8020000df
:020000040000fa
:04035400c8020000db
:020000040000fa
:04035800c8020000d7
:020000040000fa
:04035c00c8020000d3
:020000040000fa
:04036000c8020000cf
:020000040000fa
:04036400c8020000cb
:020000040000fa
:100400004f9120008e7e24000e0188000000000025
:10041000000020000000e000020032000001200087
:100420002002880014000700530207000000e000cb
:1004300003003a006027210001002000020037007d
:100440000000200001002000810f70000100320038
:1004500014000700000020000000e000020032004d
:100460000000020000000000000802000000000080
:100470000040da000000fe004440a9000010200007
:100480000000e0000300320000002000a00188000e
:100490004440a800000006008a1f78008b1f7800e7
:1004a0000000060091018800800478000000eb0045
:1004b0001a003700e284440032a0b4009905ba0063
:1004c000e284440032a0b4009906ba00e2844400f9
:1004d00032a0b4000006eb00476fde00fd07b2005b
:1004e000636ce10003003a00ebff07000000eb0043
:1004f0000a003700606ce10004003a00005deb0088
:100500008b05e900fdff3e00040037006168e10053
:10051000010032000086eb000b00070019c7ba008b
:100520001905ba000e04e00003003a000a00e000da
:10053000e0ff3a0000000600fe07b2009e018800be
:100540008a047800f5ff3700395dba008b05e900b1
:100550000c003200295dba008b05e900080032006a
:100560000c00e00003003a00e284440032a0b40032
:10057000f5ff370019ddba008b05e900faff3a00f4
:100580008904e800e184440032a0b40000000600c1
:100590000040da000000fe000000fa0011118000a7
:1005a000001020000080600000f0a7000000ea00ba
:1005b0000000e9004f00de00004078000080fa00f3
:1005c000000006000000fa009111800000102000d9
:1005d0000080600000f0a7000000ea000000e900d1
:1005e0004f00de00004078000080fa0000000600a6
:1005f0000000fa0021e2a9009560a9009580a900f9
:100600008560a9008580a9000080fa00000006002e
:100610000000fa0031e2a90097c0a90097e0a90004
:1006200087c0a90087e0a9000080fa00000006004a
:100630000200fa00000f78008560a9008580a900fb
:100640001e0078000040780067406000674060004e
:10065000674060000080fb00670060004c00dd0028
:1006600042058000f1ff2800810061000100700058
:1006700040058800000720001e0060004400de00e6
:1006800000407800674060000080fb006700600069
:100690005205800081ff2f00810061000100700081
:1006a000500588009e007800688060004300de00ee
:1006b00000407800614060000080fb006100600045
:1006c0004b00dd00a104800001b0a100010070001a
:1006d000a0048800000820001e0060004700de0023
:1006e00000407800614060000080fb006100600015
:1006f0004c00dd00a104800001c0a10001007000d9
:10070000a00488000080fa00000006000200fa0041
:10071000000f780087c0a90087e0a9001e007800bc
:1007200000407800674060006740600067406000fc
:100730000080fb00670060004800dd00920580003b
:10074000f18f2f008100610001007000900588008a
:10075000000720001e0060004400de00004078001a
:10076000674060000080fb00670060004c00dd0017
:1007700092058000f1ff28008100610001007000f7
:10078000900588009e007800688060004300de00cd
:1007900000407800614060000080fb006100600064
:1007a0004e00dd00b104800001e0a10001007000f6
:1007b000b0048800000820001e0060004700de0032
:1007c00000407800614060000080fb004f00dd00c9
:1007d000b2048000f1ff2700810061000100700079
:1007e000b00488000080fa00000006000000fa0053
:1007f0001011800000407800614060000080fa0025
:10080000000006000000fa0090118000004078000f
:10081000614060000080fa00000006000600fa0057
:10082000000f78001107980022079800ae00900092
:10083000411188009e007800011188009e00900000
:10084000111188000080fa00000006000600fa007e
:10085000000f78001107980022079800ae00900062
:10086000c11188009e007800811188009e009000d0
:10087000911188000080fa00000006000000fa00d4
:100880000011800066006000e60f500002003a0090
:10089000301180000300370031118000f00f20007c
:1008a000008060000080fa00000006000000fa00ee
:1008b0008011800066006000e60f500002003a00e0
:1008c000b011800003003700b1118000f00f20004c
:1008d000008060000080fa00000006000200fa00bc
:1008e000000f78000011800066006000e60f5000e5
:1008f00003003a009e0078002111880003003700b1
:10090000f00f20001e006000201188000080fa0017
:10091000000006000200fa00000f7800801180003d
:1009200066006000e60f500003003a009e00780069
:10093000a111880003003700f00f20001e006000a6
:10094000a01188000080fa00000006000a00fa00ea
:100950002007980031079800420798000000eb003c
:10096000000f7800be0090001107980023003700a8
:100970009e0078004e009000808f500002003100f1
:100980001e0fe800030037002e0090001f00370004
:100990000000000095ff07000004e000f4ff3200b3
:1009a0000000eb00000f780000118000660060007e
:1009b000e60f500007003a00311180003e00900021
:1009c000010878003e0090000080e80030079800a1
:1009d0000700370030118000804078001e00900032
:1009e000014878001e0090000000e8001007980001
:1009f0002e0090000000e900200798002e009000d3
:100a00000000e000e2ff3a002e0090000080fa00b3
:100a1000000006000a00fa0020079800310798003d
:100a2000420798000000eb00000f7800be00900025
:100a300011079800230037009e0078004e009000b8
:100a4000808f5000020031001e0fe80003003700c5
:100a50002e0090001f0037000000000069ff070013
:100a60000004e000f4ff32000000eb00000f78000b
:100a70008011800066006000e60f500007003a0019
:100a8000b11180003e009000010878003e00900007
:100a90000080e8003007980007003700b0118000a0
:100aa000804078001e009000014878001e009000f1
:100ab0000000e800100798002e0090000000e900f8
:100ac000200798002e0090000000e000e2ff3a00ae
:100ad0002e0090000080fa00000006000400fa00da
:100ae000100798009e009000010f78000011800010
:100af00066006000e60f50001e003a000c00370050
:100b00000000000011118000002020000080600023
:100b10000000e000fbff3a001e009000100078008b
:100b2000201188001e0090000080e8001007980047
:100b30001e009000100078000000e000f0ff3a0076
:100b4000110037000000000011118000002020007b
:100b5000008060000000e000fbff3a001e0078000b
:100b6000104078000000fb00201188001e0fe800f4
:100b700001003700000000001e00780010407800df
:100b80000004e000efff3a000080fa0000000600d9
:100b90000400fa00100798009e009000010f7800f2
:100ba0008011800066006000e60f50001e003a00d1
:100bb0000c00370000000000911180000020200090
:100bc000008060000000e000fbff3a001e00900083
:100bd00010007800a01188001e0090000080e8003e
:100be000100798001e009000100078000000e00040
:100bf000f0ff3a0011003700000000009111800062
:100c000000202000008060000000e000fbff3a00b0
:100c10001e007800104078000000fb00a011880042
:100c20001e0fe80001003700000000001e007800e1
:100c3000104078000004e000efff3a000080fa0066
:100c40000000060000f0a7000000ea0000f0a70086
:100c50000080ea0000000600800378000000eb003e
:100c60000038e60000000600889fbe008781cf00a4
:100c7000e28051000139dd000000280080025100af
:100c800005027800c12add000600240006a3b90091
:100c900005a4b90000002f000981b9000603410036
:100ca0008783490005ccb900008020000981b90084
:100cb000060341008783490005ccb90000b02f002e
:100cc0000981b900060341008783490005ccb900ba
:100cd000003820000981b9000603410087834900dc
:100ce00005ccb90000d62f000981b90006034100e8
:100cf0008783490005ccb900002120000981b90093
:100d0000060341008783490005ccb90030e52f0078
:100d10000981b90006034100878349004f33de0093
:100d20004138dd0000037300cfbbde000000280067
:100d300006034000e0834b004109de007000110013
:100d40000233de000038dd000003730082bbde00ea
:100d50000100a3000500390024a8250004b0b90053
:100d60004f00de00c108dd000103700006007800be
:0c0d70004f04be0000000600000005005b
:020000040000fa
:100d7c001108980000000600f0039000800a900013
:100d8c00058253005080ca00c002780045018800db
:100d9c00a00290001301c0007c00c8000000cb0032
:100dac000600cc00d00090000130e10004003c00b3
:100dbc00e00090000130e100010034008600780072
:100dcc0011089800b00290001301c00001035300f9
:100ddc00c00290001241c4000000cb005000cc00b7
:0c0dec00150180000520780000000600c2
:020000040000fa
:100e000000000000480600008c0c0000c812000022
:100e1000f91800001a1f0000282500001f2b0000f1
:100e2000fc300000ba360000563c0000ce41000005
:100e30001d470000404c000033510000f5550000f4
:100e4000825a0000d75e0000f2620000cf66000008
:100e50006d6a0000ca6d0000e2700000b57300000a
:100e600041760000847800007d7a0000297c000033
:100e70008a7d00009d7e0000627f0000d87f000018
:100e8000ff7f0000d87f0000627f00009d7e000091
:100e90008a7d0000297c00007d7a000084780000b3
:100ea00041760000b5730000e2700000ca6d0000da
:100eb0006d6a0000cf660000f2620000d75e00009d
:100ec000825a0000f555000033510000404c0000ec
:100ed0001d470000ce410000563c0000ba3600001d
:100ee000fc3000001f2b0000282500001a1f000006
:100ef000f9180000c81200008c0c00004806000021
:100f000000000000b8f9000074f3000038ed0000a4
:100f100007e70000e6e00000d8da0000e1d40000b6
:100f200004cf000046c90000aac3000032be000082
:100f3000e3b80000c0b30000cdae00000baa000073
:100f40007ea5000029a100000e9d0000319900003f
:100f500093950000369200001e8f00004b8c00001d
:100f6000bf8900007c87000083850000d7830000d4
:100f700076820000638100009e80000028800000cf
:100f800001800000288000009e8000006381000036
:100f900076820000d7830000838500007c870000f4
:100fa000bf8900004b8c00001e8f000036920000ad
:100fb00093950000319900000e9d000029a10000ca
:100fc0007ea500000baa0000cdae0000c0b300005b
:100fd000e3b8000032be0000aac3000046c900000a
:100fe00004cf0000e1d40000d8da0000e6e0000001
:100ff00007e7000038ed000074f30000b8f90000c6
:020000040000fa
:101000000000fa0060022000303a8800213a800097
:10101000f0f32f0000806000203a8800213a800021
:1010200000fe2f0000806000203a8800320020007f
:1010300080072000a1092000337420008049780037
:101040008149780082497800120020006004200065
:1010500071052000237420008049780081497800c0
:101060008249780000000000113a8000000027004b
:101070008080600000002300808f5000faff3a005b
:1010800000000000113a8000000220000080600093
:101090000000e000fbff32008085200070030700a5
:1010a0005d02070077050700010207004204070000
:1010b0001628ef0016e8a9001608a8009480a900d9
:1010c000540107000004e000030032001628a900c4
:1010d0000080fa00000006006000b800504488005c
:1010e000614488006000b800f04488000145880031
:1010f0006000b80090458800a14588008480a90060
:101100009480a800b0408000620060000000e00011
:101110000e003a000000000051168000000420007c
:10112000008060000000e000fbff3a0000000000cb
:101130005116800000042000008060000000e000e4
:10114000fbff3200330107001628a80016c8a800cc
:101150000700370000000000050037000000000015
:10116000030037000000000001003700000000000d
:10117000e1408000f07c2000808f5000f5ff3600b9
:10118000b0408000620060000000e00001003a0012
:1011900040003700511680000004200000806000ed
:1011a0000000e00013003a00eb0107005116800038
:1011b00000042000008060000000e00006003a000b
:1011c000b0408000700060000000e00009003a00bc
:1011d0001688a80007003700b0408000700060004b
:1011e0000000e000030032001688a9001628a900bc
:1011f00028003700511680000008200000806000a1
:101200000000e000d5ff3a00d3010700511680002e
:1012100000082000008060000000e00007003a00a5
:10122000b140800000022000008060000000e0006b
:10123000ccff3a0016a8a800cdff3700b1408000cf
:1012400000022000008060000000e000c7ff3200c4
:1012500016a8a900b14080000008200000806000ae
:1012600000f0a7000000ea000000e9004f00de00e7
:10127000004078000080fb00610060004700dd0056
:10128000b14080000170a10001007000b0408800f2
:10129000b7ff370087ff37000000fa008081200089
:1012a000ed040700b0408000610060000000e00035
:1012b00053003200b1408000000420000080600034
:1012c0000000e0002a00320016c8a9000000eb0070
:1012d000b04188000000eb00a04188000000eb0056
:1012e000904188001428ef001028ef001228ef002a
:1012f0000000eb00c04288000000eb00d0428800f4
:101300000000eb00e04288000000eb00f0428800a3
:101310000000eb00104388000000eb003043880021
:101320000000eb00404388000000eb0050438800c1
:101330000000eb00604388000000eb007043880071
:101340000000eb00804388000000eb009043880021
:101350000000eb00c04388000000eb00d043880091
:101360000000eb00204488000000eb0030448800bf
:10137000c0e82000b0418800104180000000e0007b
:1013800002003a003044800010468800304280005d
:10139000d0448800a0418000c0448800a08820007c
:1013a00078fe0700e044800050428800e14480005d
:1013b000e04480003f030700204188002041800076
:1013c000413827000080500023fe07004045880078
:1013d000404580000000ea005045880040428000ff
:1013e00070458800b041800060458800e089200099
:1013f00064fe070080458000604288006600370078
:10140000b140800000082000008060000000e00083
:1014100005003200d1408000a0aa240000804000d6
:101420009041880008003700d1408000a0aa240025
:101430008080400020002000000178001100090099
:101440008200d80090418800b14080000004200054
:10145000008060000000e0000a00320016c8a90009
:10146000b0418000cf80de00c000dd000000200021
:1014700090458800a14588001428ef001028ef004f
:101480001228ef00104180000000e00008003a0040
:10149000304480001046880090418000004688005b
:1014a000208b200037fe070020468000b0418800d6
:1014b000b0408000640060000000e00002003200e4
:1014c00090418000b041880090418000ddfd070020
:1014d00007030700a041880030428000d044880004
:1014e000a0418000c0448800a088200025fe07009d
:1014f000b0408000680060000000e000040032009e
:10150000e0448000240107005042880002003700b8
:10151000e0448000504288005142800050428000e8
:10152000e402070020418800204180004138270064
:1015300000805000c8fd07004045880040458000fd
:101540000000ea0050458800404280007045880055
:10155000b041800060458800e089200009fe070056
:10156000b0408000680060000000e000040032002d
:1015700080458000080107006042880002003700b3
:101580008045800060428800404480000000e00008
:1015900001003d001628a9000080fa0000000600a6
:1015a0003600f800809fbe00829fbe00849fbe0070
:1015b000869fbe000000fa008480a900e040800001
:1015c0000000e800e0408800b04080006200600059
:1015d0000000e00008003200f30307006c00070081
:1015e000dd0307002cff0700950307000e0407002a
:1015f000ff030700150307000080fa004f03be0039
:101600004f02be004f01be004f00be003600f90081
:10161000004006000000fa0044e0a900908828007d
:1016200081082000704188008141880080382100b5
:1016300060418800a0aa2200c0408800808020006d
:1016400001002400010878008080200001002400af
:1016500021009800807f2400a0009000807f24005b
:1016600010009000df030700807f2400300090000e
:101670008080d100000024000080400040418800ac
:1016800000802000f17c200001087800d621ef00c6
:10169000d821ef00da21ef00703e2000200e8800f4
:1016a00070072000400e880080062000600e880031
:1016b000ce21ef00d021ef008b20a9009b20a900b4
:1016c00020002800000e8800200e80000005b100d8
:1016d000300e8800c7e1a8002023ef0081e3a900b5
:1016e00001198000003020000100700000198800fe
:1016f00001198000f0f12f008080600000062000ba
:1017000001007000001988002063a8002043a80091
:101710002223ef0011198000f0cf2f00008060001d
:101720000090a000101988002423ef00f0c0b3003f
:1017300024e3b7002823ef004119800000fe2f00aa
:10174000008060000030a000401988002603a90036
:101750000080eb00601988002c03a9002c23a9004d
:101760002c43a9002c63a9003023ef00111980003d
:1017700030fc2f00008060001019880081e3a80071
:1017800021e3a8000040eb000080fa000000060002
:101790000000fa0010428000804388002042800050
:1017a000c043880070428000c042880080428000b0
:1017b0003043880080852000ab000700b0408000e7
:1017c000610060000000e0002500320061418000ff
:1017d000a0408000808f500004003600a0408000b0
:1017e0000000e800a040880015003700704180002c
:1017f000814180000001be00804080009140800057
:10180000800f5100818f5900070036008040800012
:1018100091408000f00db0000180b0008040880051
:10182000914088000600370016c8a8001608a900d5
:10183000c141800020448000008050005041880059
:10184000c241800080408000914080004008de005e
:101850000000780000004100c041880012003700fd
:10186000214480005041800000804000c041880039
:1018700050418000f3fc0700e90f50000a003400db
:10188000504180000000e00004003d005041800015
:10189000690040005041880003003700504180003b
:1018a00069005000504188000080fa0000000600e6
:1018b0000000fa008014200070448800400a2000d4
:1018c00080448800f0ff270090448800909927000a
:1018d000a0448800a04480000000ea00b0448800d2
:1018e000a088200025fd07008014200010458800f6
:1018f000400a200020458800f0ff2700304588007e
:101900009099270040458800404580000000ea008b
:1019100050458800e089200018fd0700d0cc200049
:10192000b0458800400a2000c0458800f0ff27002d
:10193000d0458800f0ff2400e0458800e0458000a5
:101940000000ea00f0458800208b20000bfd070016
:101950000080fa00000006000400fa006000b800f1
:10196000008fbe000400370012002000030020009a
:101970001e0f41005e974900f06928001100200009
:101980001e01be00800f5100818f5900f6ff340008
:101990000080fa00000006000400fa00100798001a
:1019a0004141800030418000808f50000a003400a7
:1019b00031418000424180003041800000005100f0
:1019c000c50107009e009000ba0107009e0090002c
:1019d000010f40000d003700314180004041800080
:1019e000808f50000700340031418000404180006a
:1019f000b90107009e009000ae010700000f7800bb
:101a0000020037009e009000010f78001e00780051
:101a10000080fa00000006000000fa00011c8000af
:101a2000f0fc2f0000806000001c8800011c80007a
:101a3000c0ff2f0000806000001c880000302000e4
:101a4000401c880030002000501c8800d00020007e
:101a5000101c8800807f2000201c880081e3a800e3
:101a60000080fa00000006000200fa00000f780073
:101a70004400f80044e0a80044c0a8004480a80046
:101a80000a0107002c0107001e0078005008900092
:101a90006cfc07009e007800f1089000810f500058
:101aa00002003d00330107000e0037001e007800e1
:101ab000500890000000e000050034001e0078008f
:101ac000e00890001e007800310098000500370003
:101ad0001e007800600890008000ea001e00780078
:101ae000310098001e0078001010900055fc07008f
:101af0009e007800f1089000810f500002003d0028
:101b0000250107000e0037001e007800101090001d
:101b10000000e000050034001e007800e00890009e
:101b20001e00780021089800050037001e0078008c
:101b3000600890008000ea001e00780021089800ec
:101b40001e0107001e007800900890001e0078001b
:101b5000200090000000ea00020207009e007800ca
:101b6000e01098001e007800e0109000f040800027
:101b700080805000004180000080400000418800cb
:101b80001e00780060109000f04088001041800036
:101b90000000e8001041880010418000f40f500060
:101ba00005003a00014180001e0078007110980085
:101bb0002228ef002028ef00310107001e007800e6
:101bc00000189000b14121003a0107009e00780002
:101bd000b01098001e007800b01090001e00780031
:101be000211098001e007800a0109000c01a20005c
:101bf000808f500006003c001e007800d11a2000a3
:101c0000211098001e007800d11a20003110980091
:101c10001e00780080189000a0aa2000808f50003d
:101c200014003c001e00780000189000f175270099
:101c3000200107009e007800d01098001e00780058
:101c4000501190001e007800001890006500b90047
:101c500000007800800041001e00780051109800bc
:101c60001e007800d01090001e00780051109800df
:101c7000710037001e00780080189000f0ff2100ee
:101c8000808f500011003c001e007800001890006a
:101c90008000eb00070107009e007800d01098003c
:101ca0001e007800d01090001e007800511098009f
:101cb0001e007800d010900080f423008080400047
:101cc0001e007800511098005b0037001e0078005d
:101cd0008018900040552300808f500011003c0078
:101ce0001e007800001890008000eb00f100070053
:101cf0009e007800d01098001e007800d010900050
:101d00001e007800511098001e007800d01090003e
:101d100080f42300808040001e007800511098005d
:101d2000450037001e0078008018900090aa24001b
:101d3000808f500011003c001e00780000189000b9
:101d40008000eb00db0007009e007800d0109800b8
:101d50001e007800d01090001e00780051109800ee
:101d60001e007800d010900080f423008080400096
:101d70001e007800511098002f0037001e007800d8
:101d800080189000e0ff2500808f500011003c007b
:101d90001e007800001890008000eb00c5000700ce
:101da0009e007800d01098001e007800d01090009f
:101db0001e007800511098001e007800d01090008e
:101dc00080f42300808040001e00780051109800ad
:101dd000190037001e007800801890003055270049
:101de000808f500011003c001e0078000018900009
:101df0008000eb00af0007009e007800d010980034
:101e00001e007800d01090001e007800511098003d
:101e10001e007800d010900080f4230080804000e5
:101e20001e00780051109800030037001e00780053
:101e300081f42300511098001e007800e0109000fb
:101e40001e00780050109000808040001e00780036
:101e5000611098004400f9000080fa0000000600bc
:101e60000200fa00000f78001e0078009171270030
:101e7000610098001e007800513520004100980054
:101e80001e007800c1cc2400610898001e00780074
:101e9000d1cc2000710898001e007800d11a2000d3
:101ea000411098000080fa00000006000443800002
:101eb000c54280001301c000d54280001381c000dc
:101ec0000090cb000000cb00f54280001381c000e1
:101ed0000090cb000000cb0024438000154380001d
:101ee0001381c0000000cb000000cd00104388002b
:101ef00004438000354380001301c0004543800047
:101f00001381c0000090cb000000cb00654380002f
:101f10001381c0000090cb000000cb002443800060
:101f2000754380001381c0000000cb000000cd008d
:101f30007043880000000600104380008143800049
:101f40000000ca000180ca000030cb000000cd00b4
:101f50009043880070438000c14380000000ca00a5
:101f60000180ca000030cb000000cd00d0438800c3
:101f700000000600a443800095438000b943800020
:101f80001301c0000000cd00110009000900d900b4
:101f9000f042880000000600a4438000d543800082
:101fa000b94380001301c0000000cd0011000900fa
:101fb0000900d9006043880000000600d04280007c
:101fc0000000ca00f4428000e54380001381c00095
:101fd0000000cb00d44280001381c0000090cb00f1
:101fe0000000cb000000cd00d042880040438000bc
:101ff0000000ca0064438000e54380001381c000f4
:102000000000cb00444380001381c0000090cb004f
:102010000000cb000000cd0040438800e04280007b
:102020000000ca00d4428000f54380001381c00044
:102030000000cb00e44280001381c0000090cb0080
:102040000000cb000000cd00e0428800504380003b
:102050000000ca0044438000f54380001381c000a3
:102060000000cb00544380001381c0000090cb00df
:102070000000cb000000cd005043880000000600a7
:102080004044800034448000054480000000ca00c1
:102090001381c0000000cb00444480001381c000c5
:1020a0000090cb000000cb000000cd004044880031
:1020b00000000600841f7800851f78000002780069
:1020c000810278001301c0000000cd00cf0278002b
:1020d0004f02780000000600821f7800010178009e
:1020e000110009000200d9004f017800000006002d
:1020f0000200fa00881f7800000f78005046800028
:102100009e0f500003003500a04680004046880026
:1021100025003700504680001e001000f1ff270008
:10212000edff070080468800804680004b80de007f
:102130007046880081468000f07f200000806000ab
:102140004400dd0090468800704680006700400033
:1021500080004000608c2000008040001004780067
:1021600091468000704680006700400000014000fa
:10217000608c200000004100100178007046800053
:102180000000e8006700400080014000608c2000f3
:10219000008041001000780000005100c5ff0700da
:1021a0000000540040468800404680004f047800fc
:1021b0000080fa00000006000000fa00f0ff230093
:1021c000504688000000eb00a0468800a0ba2f000f
:1021d000b0468800e0772f00c046880080322f008c
:1021e000d0468800a00b2f00e046880060dc2e005f
:1021f000f0468800c0b22e0000478800607b2e00a9
:102200001047880040542e002047880080462e004a
:102210003047880070222e0040478800a01f2e0003
:102220005047880040172e006047880040172e0056
:102230007047880040172e008047880040172e0006
:10224000904788000080fa000000060014408000db
:1022500025408000364080000400e0001900350071
:102260000500e000070035008501780004017800d2
:102270002d000700b40e8800c50e8800d60e880019
:10228000000006000600e000070035008401780029
:102290000601780024000700b60e8800c40e8800ee
:1022a000d50e8800000006008501ea000601ea005c
:1022b0001d000700b50e8800c40e8800d60e8800e9
:1022c000000006000500e000100035000600e000f8
:1022d000070035008601780005017800120007002c
:1022e000b50e8800c60e8800d40e880000000600d7
:1022f0008601ea000401ea000b000700b40e880022
:10230000c60e8800d50e8800000006008401ea0091
:102310000501ea0004000700b60e8800c50e88001b
:10232000d40e8800000006000008d4000282b80025
:10233000050178000382b800850178000088bf009d
:1023400082005000838050008180d100010378001a
:102350008280400081027800838040000102780082
:10236000000006000200fa00881f7800891f78002c
:102370004400f800080028000800e10002003a00cc
:1023800000002c00290037000808e10002003a0094
:10239000f0ff2700250037008e0478008003eb0053
:1023a0000100e0000a003b00810c78000000e00022
:1023b00004003400800078001900ea0007002c00b7
:1023c000030037008000ea0019007800f7ff2300bf
:1023d0008080ca008100ca00488f2000f5ff2700d6
:1023e000090008000f0000001900cd000680cd0094
:1023f0000600e000060033001201c4001903780053
:1024000012c1c4003802780087031a0005003700a3
:102410001241c400190378001281c4003802780008
:10242000870342008502d1000700ea004400f9005a
:10243000cf0478004f0478000080fa000000060006
:1024400020028000a1018000809fbe004440a800bf
:1024500000002000a00188008783200000082000e1
:10246000b70078000101b8008381410005702800a1
:102470000200e00009003a0005824100941b780048
:102480000344b00005824100940b78004f00be0069
:1024900020028800a101880000000600058241009a
:1024a0001403780083c1e800058241001400130082
:1024b0000090b800869b4000e343b00005824100d5
:1024c000058241001403780083c1e80005824100c1
:1024d000140013000090b800868b40004f00be002f
:0c24e00020028800a10188000000060016
:020000040000fa
:1024ec002c0800009a00000000000000000800000a
:1024fc002c00000000000000f8470000080000005d
:10250c0000000000f40800002000000002000000a1
:10251c000020e40012fb090011058b0002460100ab
:10252c00a30051000029000014000a00000500005f
:10253c00030001000001000000000000c6080000bc
:0c254c002e000000000000000000000055
:020000040000fa
:10255800749e2400f64180001301c10007428000e8
:102568001201c2001201c200f64180001642880022
:102578000700cc0027428800d4418000e541800054
:102588001301c2001201c400638420003300cc0090
:102598001301c5001241c1001300cc000000060061
:1025a800d03f82000a08b5008002780044408000cd
:1025b8001301c0000400cc00f4418800e03f820011
:1025c8000e08b50080027800644080001301c00046
:1025d8000400cc0004428800000006005040880037
:1025e8007140880000000600744280008542800027
:1025f8001540880096ed26008502ea008500ca008d
:102608001201c1000000cc00204088008500ca00eb
:102618001241c1000000cc003040880000000600d4
:102628005642800067428000d4418000e541800026
:102638001301c4001241c200e38420003300cc001f
:102648001301c1001201c5001300cc0000000600f0
:1026580000029000c53f82001301c0000400cc00b6
:1026680014009800f43f82008482d1000400240002
:102678000482420034418800000006000000fa008d
:10268800c422ef000080eb0000168800cc22ef0087
:102698000080eb00401688000080fa000000060069
:020000040000fa
:0200000401f009
:04000000ffff0000fe
:020000040000fa
:0200000401f009
:04000400ffff0000fa
:020000040000fa
:0200000401f009
:04000800ffff0000f6
:020000040000fa
:0200000401f009
:04000c0000000000f0
:020000040000fa
:0200000401f009
:04001000610000008b
:020000040000fa
:0200000401f009
:040014005f00000089
:020000040000fa
:0200000401f009
:04001800770000006d
:020000040000fa
:0200000401f009
:04001c00dfff000002
:00000001FF
